:020000040800F2
:10000000E8060020212800085B0100085D010008C7
:1000100000000000000000000000000000000000E0
:100020000000000000000000000000006101000866
:1000300000000000000000006301000865010008E6
:10004000512800080000000051280008512800082D
:10005000512800085128000851280008512800089C
:10006000000000005128000851280008512800080D
:1000700051280008512800085128000800000000FD
:100080007501000800000000000000005128000871
:100090005128000851280008512800086D01000867
:1000A000512800085128000851280008512800084C
:1000B0005128000800F002F800F040F80CA030C809
:1000C000083824182D18A246671EAB4654465D46D4
:1000D000AC4201D100F032F87E460F3E0FCCB6465E
:1000E0000126334200D0FB1AA246AB4633431847E1
:1000F000042E0000242E0000103A02D378C878C1E4
:10010000FAD8520701D330C830C101D504680C6059
:10011000704700000023002400250026103A01D378
:1001200078C1FBD8520700D330C100D50B607047AF
:100130001FB5C046C0461FBD10B510BD02F078FD0A
:100140001146FFF7F5FF00F006F902F090FD03B449
:10015000FFF7F2FF03BC02F095FD704700BFFEE71A
:100160007047704710B500F02DFA10BD10B500F0C3
:100170002AFD10BD10B500F0CEFA10BD1CB5FC482C
:100180000078002856D00020F9490870322000F08D
:1001900023FA0320400200900121684601710021EA
:1001A0008171032141710021C17169460920C00696
:1001B00000F03AFE012149020920C00600F0B1FE1C
:1001C000012189020920C00600F0ABFE0220009048
:1001D0000021684601718171032141710121C171C2
:1001E00069460920C00600F01FFE22E00221092016
:1001F000C00600F07CFE00280CD001214902092035
:10020000C00600F08EFE012189020920C00600F020
:100210008AFE0BE0012149020920C00600F083FE9E
:10022000012189020920C00600F07BFE642000F055
:10023000D3F9DBE71CBD0246002003E00023135482
:10024000431CD8B28842F9DB704710B50346002042
:1002500003E01C5C0C54441CE0B29042F9DB10BD7E
:100260001CB50121480401F057FC0121880401F06C
:1002700053FC0121880501F04FFC02200090002171
:10028000684601718171032141710121C171694683
:100290000920C00600F0C8FDFD200090012168463D
:1002A000017100218171032141710021C1716946F1
:1002B0000920C00600F0B8FD022000900121684628
:1002C000017100218171032141710021C1716946D1
:1002D000A84800F0A9FD03204003009001216846D2
:1002E000017100218171032141710021C1716946B1
:1002F0000920C00600F098FD032149030920C0062B
:1003000000F00FFE032000900121684601710021DA
:100310008171032141710021C1716946964800F045
:1003200083FD0321944800F0FCFD944800680121FE
:10033000090488439149086002218E4800F0F1FDCC
:10034000032149030920C00600F0EBFD03218A4880
:1003500000F0E7FD1CBD0EB500200090019002905A
:1003600000F016F9FFF77CFF00F0DCFB00F090F9DD
:100370000221062000F07DFBDAE0814800780028A9
:1003800075D014227F498048FFF75FFF7D480078D1
:100390008038030002F07DFC06042A5BC86CA2C80A
:1003A000784880780002794908607648C078096802
:1003B000401876490860734948787449096800F024
:1003C000BFFA72480068002800D1AEE06F480068AC
:1003D00000280AD014216B48FFF72DFF0020684940
:1003E000087010216848FFF726FF9EE065484578B1
:1003F000002406E06349A01C085C69460855601C9F
:10040000C4B2AC42F6DBA81C5E49085C00025F493E
:100410000860E81C5B49085C5C49096840185B4956
:10042000086008460168684600F0D1FA574800683D
:10043000002800D179E014215248FFF7FCFE00208B
:100440004F49087010215048FFF7F5FE6DE04D4907
:10045000487800F060FB14214A48FFF7ECFE0020CA
:100460004749087010214848FFF7E5FE5DE05DE070
:10047000444880780002454908604248C0780968CD
:100480004018424908603F4948784049096800F0EF
:10049000F0FA3E480068002800D146E0394840782C
:1004A00007280BD114213748FFF7C5FE0020344937
:1004B000087010213448FFF7BEFE0EE03348006894
:1004C00000280AD014212F48FFF7B5FE00202C4940
:1004D000087010212C48FFF7AEFE26E029488079ED
:1004E00000022A4908602748C0790968401827494E
:1004F0000860084601682348401C00F0FBFA2348C6
:100500000068002800D110E02048006800280AD0C8
:1005100014211C48FFF78FFE002019490870102194
:100520001948FFF788FE00E000BF00BFFFF726FE76
:1005300023E710B50521C904002001F0C2F801200D
:1005400001F0CEF800BF192001F005F80028FAD01C
:10055000022001F00AF900BF01F013F90828FBD1CD
:10056000064800680121090488430449086010BD59
:10057000040000200004004800140048001002405D
:100580002F000020540000207800002000000020F0
:1005900010B538493848006802F09AFA0446601EDF
:1005A0003649884200D90CE0601E35494861032174
:1005B000081F00F028F800203149886107200861F1
:1005C00000BF10BD2F480068002804D02D480068E7
:1005D000401E2C49086070472A49086000BF29491D
:1005E00009680029FBD1704710B504460E2044432A
:1005F0000A21204602F06CFA044600BF2046641E21
:100600000028FBD110BD10B5002819DA1E4A0307D7
:100610001B0F083B9B089B00D2588307DC0EFF236F
:10062000A3409A438B071B0E8407E40EA3401A4392
:10063000154B0407240F083CA408A4001A5118E025
:10064000124A03231B02D21883089B00D258830747
:10065000DC0EFF23A3409A438B071B0E8407E40E96
:10066000A3401A43094B032424021B198408A40045
:100670001A5110BD7017000040000020FFFFFF005E
:1006800000E000E0080000201CED00E000E100E0D8
:1006900000B589B00121022001F05AFA1021684604
:1006A0000170022141700121817000F0C1FEFD49FD
:1006B000FD48006802F00CFA401EFC490860FC4846
:1006C00007900021684601830184418306A9F94807
:1006D00001F018FBF548008881B20122F54801F0CD
:1006E00047FB0021684681800121C180F2480068F3
:1006F000039000216846018201A9EE4801F0BEFB8B
:100700000021EC4801F03AFD01220221E94801F004
:100710007DFF09B000BD10B50221E64801F08FFF52
:1007200000281ED00221E34801F09CFFE14801F0BF
:1007300061FFE249086008460068DF4A12688118D4
:10074000DC4801F0DEFCDE480068401CDC49086043
:1007500008460068DB490968884202D10120DA496D
:10076000087010BD70B504460D462011002804D055
:10077000012818D005283ED129E0002D09D02207F4
:10078000120F0120904081B20920C00600F0C9FB81
:1007900008E02207120F0120904081B20920C00614
:1007A00000F0C1FB28E0002D08D02207120F012025
:1007B000904081B2C54800F0B4FB07E02207120F59
:1007C0000120904081B2C14800F0ADFB14E0002D43
:1007D00008D02207120F0120904081B2BC4800F0DF
:1007E000A0FB07E02207120F0120904081B2B84819
:1007F00000F099FB00E000BF00BF70BD10B5002401
:1008000006E0B449085D0121FFF7ACFF601CC4B2EB
:10081000052CF6DB002406E0AF49085D0021FFF758
:10082000A1FF601CC4B2072CF6DB10BDF8B5002098
:10083000009054E0A9480078002804D10427012042
:10084000A749087003E000274020A549087000254B
:100850003FE0A448465DFFF7D1FFA048007800289C
:1008600008D139467A1ED7B29A4A505C0021FFF768
:1008700079FF07E039467A1CD7B2964A505C0021CE
:10088000FFF770FF002420E09548007830400028F2
:100890000DD09149085D0121FFF764FF0520FFF7A6
:1008A000A3FE8D49085D0021FFF75CFF04E08A4943
:1008B000085D0021FFF756FF88480078002801D125
:1008C000760800E07600601CC4B2072CDCDB681CF4
:1008D000C5B2052DBDDB0098401CC0B20090009849
:1008E0000528A7DBF8BD70B504460D46002D09D0DC
:1008F000322C00D232243221204602F0E9F871492C
:10090000086008E07D21C90061430846322102F0F9
:10091000DFF86C4908600020694908606A4908707E
:100920000121644801F073FA01E0FFF77FFF664898
:1009300000780028F9D000215E4801F068FA70BD07
:10094000F8B505460E4600240AE028462038810006
:10095000401807196448C05D62490855601CC4B25C
:10096000052CF2DB00213046FFF7BDFFF8BDF3B5E3
:1009700081B00198632801DD632001900A2101986C
:1009800002F0B0F8C8B200900A21019802F0AAF86B
:10099000C6B2002414E00098810040180019C7B2C4
:1009A0005248C75DB00030180019C5B24F48455DC8
:1009B0002807050E284638434A490855601CC4B22A
:1009C000052CE8DB00210298FFF78DFFFEBDF3B593
:1009D00083B005200190039802F058F807460024E0
:1009E00043E00198052817D1BC4211D200250AE046
:1009F0000398005D20388100401846193A48805D10
:100A0000384948556D1C052DF2D3002035494871F1
:100A100000200190641C24E0BC420AD20398005DCF
:100A200020388100411801980E182F48805D0290EF
:100A300001E0002002902B4840782A4908700846BF
:100A4000807848700846C078887008460079C87079
:100A5000084640790871029848710198401CC0B25C
:100A6000019001210498FFF73EFFBC42B9D305B0C5
:100A7000F0BD70B505460E46072D00DD70BD0024A3
:100A800008E0A800281800191949085C15490855FC
:100A9000601CC4B2052CF4DB00213046FFF723FFB5
:100AA00000BFEBE7808D5B004000002010000020BD
:100AB000FFFF0000000400400C0000201400002094
:100AC000240000202000002028000020000400480E
:100AD00000140048E82E0008ED2E00081800002041
:100AE000190000201A000020AE2C00088E2E0008ED
:100AF000C02E000870B505460E46002404E0285DAF
:100B000006490855601CC4B2052CF8DB00213046AC
:100B1000FFF7E9FE70BD0249087070471A00002017
:100B20001800002000B58BB0102000F071FE0121EC
:100B3000480501F00DF804220921C80600F0FDF96E
:100B400004220A210920C00600F0F7F9022108A8B2
:100B5000017203214172012181720021C1720120C1
:100B60004002099009A90920C00600F05DF90120A2
:100B70008002099009A90920C00600F055F900205B
:100B80000590039004904220069000200790089062
:100B9000744802900121744800F054FA01222E2179
:100BA000714800F065FA02A96F4800F00EFA1721AB
:100BB00068460171002141710121817101A800F095
:100BC00037FC0BB000BD10B5002067498969FE22D3
:100BD0001140084608210140002906D06249C96930
:100BE00008221143604AD161BAE002210140002984
:100BF0001DD05D498969012211435B4A91615B49BE
:100C00000978002911D15A495A4A1278895C564A02
:100C1000916258490978491C564A11701146097861
:100C2000042901DB0021117000E000BF98E00421DD
:100C3000014000297CD04C498969012211434A4A6C
:100C400091611146496ACAB24A490B780978491C30
:100C5000484C21704849CA54097881292CD006DCB7
:100C600000290BD0542958D080295FD112E0822965
:100C700036D084290FD0852958D13CE03D490978E8
:100C8000012906DB3C490978384A11700021394AAC
:100C900011704CE000BF0121384A11700021384A20
:100CA000116034490978042905DB0021314A1170AB
:100CB0000121344A11703AE00121304A11700021BB
:100CC0002F4A11602C494978091D2A4A127891420D
:100CD00005DC0021274A117001212A4A117026E003
:100CE00024490978022905DB0021224A11700121DB
:100CF000244A11701BE00121204A11700021204A72
:100D000011601C490978082905DB0021194A117076
:100D100001211C4A11700AE00AE001211A4A1170EF
:100D2000164A11700021164A116000E000BF17E05A
:100D300010210140002906D00B49C9691022114336
:100D4000094AD1610CE020210140002908D0064960
:100D5000C96920221143044AD1610021054A11705A
:100D600010BD0000130F42B00054004029000020C5
:100D70002B0000202A0000207800002028000020FE
:100D8000000000202F0000200400002010B50446C1
:100D90000920C006844209D10121480400F0E6FE82
:100DA00000210120400400F0E1FE3CE07448844250
:100DB00008D10121000200F0D9FE0021200200F03C
:100DC000D5FE30E06F48844208D10121000200F0D6
:100DD000CDFE0021200200F0C9FE24E06A488442D2
:100DE00009D10121080500F0C1FE00210120000504
:100DF00000F0BCFE17E06548844208D101214002A2
:100E000000F0B4FE0021600200F0B0FE0BE060488C
:100E1000844208D10121880500F0A8FE00210120AC
:100E2000800500F0A3FE10BDF0B50A4600210023A6
:100E3000002400BF3DE001258D402B4615681D4074
:100E40002C469C4234D11579012D02D01579022D02
:100E500016D185684F000326BE40B543856055799D
:100E60004E00B540866835438560858801268E40F2
:100E7000B5438580858896798E40B6B235438580A6
:100E800005684F000326BE40B543056015794E0046
:100E9000B540066835430560C5684F000326BE406F
:100EA000B543C560D5794E00B540C6683543C560C9
:100EB000491C1029BFD3F0BD3649016000210171E2
:100EC0000121417100218171C171704708B5012272
:100ED00012040092009A0A430092009AC261C16112
:100EE000009AC261C2690092C269009208BD0246BE
:100EF0000020138A0B40002B01D0012000E00020CD
:100F000070470146088A704702460020938A0B40CA
:100F1000002B01D0012000E0002070470146888AA4
:100F200070478161704701857047002A01D0816157
:100F300000E00185704781827047F0B500230024EE
:100F40004D07EE0E1546B5402B46CD10AE000546BA
:100F50002035AD594E07F70E0F26BE40B543CE10D3
:100F6000B60007462037BD51CD10AE003D46AD5905
:100F70001D432C46CD10AD003E467451F0BD00001F
:100F80000004004800080048000C00480010004819
:100F900000140048FFFF000010B50446F9488442E1
:100FA00009D10121480500F0FDFD00210120400587
:100FB00000F0F8FD08E00121880500F0F3FD0021B4
:100FC0000120800500F0EEFD10BD10B50A4600219D
:100FD00003685B085B0003600168EB4B1940946891
:100FE000240253682343194301600F242406136825
:100FF000A34303610368012423430360002181604C
:10100000C160146993692343194681608368012490
:10101000E40323438360D16803680B4303604168A2
:10102000DA4B194053691943416010BD002101603A
:1010300041608160C16001610121C90341610021FA
:1010400081617047002904D0026801231A430260BD
:1010500003E00268520852000260704701684908C4
:101060004900016001680168012211430160704775
:10107000002A03D003680B43036002E003688B433C
:1010800003607047002905D0026801235B049A437E
:10109000026004E0026801235B041A4302607047A7
:1010A000002905D0026801239B041A43026004E072
:1010B000026801239B049A4302607047002905D00F
:1010C000C2680123DB031A43C26004E0C268012343
:1010D000DB039A43C260704770B50B460021C168BC
:1010E000AB4C2140FE241C40150207263602354039
:1010F0002C432143C16070BD002905D00268012343
:10110000DB041A43026004E002680123DB049A4313
:1011100002607047002905D0026801231B041A43AE
:10112000026004E0026801231B049A4302607047D6
:101130000A4600214168890A890293059B0D1943DB
:1011400041607047002905D042680123DB021A4341
:10115000426004E042680123DB029A434260704728
:10116000002905D0426801235B061A43426004E06F
:10117000426801235B069A4342607047002905D00C
:10118000426801231B061A43426004E042680123BF
:101190001B069A434260704710B50A460021416819
:1011A000FF2424040B46A343194613042340194388
:1011B000416010BD002905D1426801239B029A437A
:1011C000426004E0426801239B021A434260704778
:1011D000002905D0426801235B031A43426004E002
:1011E000426801235B039A4342607047002905D09F
:1011F000426801239B031A43426004E042680123D2
:101200009B039A4342607047002905D0426801233E
:101210001B031A43426004E0426801231B039A4304
:1012200042607047002905D042680123DB039A43DE
:10123000426004E042680123DB031A4342607047C6
:10124000014688697F2252041040000C704710B597
:101250000146002200208B690124240423401A4601
:10126000002A00D101E00120800210BDF0B50C463B
:1012700000214168474D2940A505AD0D1604FF2703
:101280003F043E4035431D43059E3543294341609D
:10129000F0BD002905D0026801239B051A430260B6
:1012A00004E0026801239B059A430260704700290D
:1012B00005D042690123DB031A43426104E042691D
:1012C0000123DB039A4342617047002905D042693C
:1012D0000123DB071A43426103E0426952005208CE
:1012E00042617047002905D0426901231B031A435C
:1012F000426104E0426901231B039A434261704743
:101300000A4600214169090B090313051B0D194306
:101310004161704710B50A46002141691E4B1940D2
:1013200013041D4CE44323401943416110BD0029BF
:1013300005D002680123DB051A43026004E002685D
:101340000123DB059A4302607047002905D04268FB
:1013500001239B061A43426004E0426801239B0676
:101360009A43426070470146086AC0B2704708B5A8
:1013700002460020009000920098401800900098CB
:10138000006808BD00540040FFE0CF00FF7FFF076A
:1013900001F8FFFF009800FCFFFF00F0816270473A
:1013A0000146486AC0B27047002A03D003680B4365
:1013B000036002E003688B430360704710B5024688
:1013C0000023002093691C460C402346002B01D0CB
:1013D000012000E0002010BDC161704770B50246D9
:1013E0000023002000243F252D020D40002D04D0B5
:1013F0001568802635402C460BE0C0250D40002D99
:1014000004D01568402635402C4602E015680D4092
:101410002C4693691D460D402B46002B03D0002C13
:1014200001D0012000E0002070BDC16170470000C4
:1014300000218278002A27D0274A03231B02D218D2
:1014400003789B109B00D15802789207D30EFF229D
:101450009A400B469343194642789207120E03783E
:101460009B07DB0E9A4011431B4A03231B02D21831
:1014700003789B109B00D1500278D306DB0E01222B
:101480009A40154B1A6007E00278D306DB0E012262
:101490009A40114B80331A607047002905D00F4ADB
:1014A000126902430D4B1A6104E00C4A126982432F
:1014B0000A4B1A617047042806D1094909690422B8
:1014C0001143074A116105E0054909690422914366
:1014D000034A11617047000000E100E000ED00E008
:1014E00000E000E0FE48006801210843FC49086074
:1014F00008464068FB490840F949486008460068CA
:10150000F9490840F6490860084600680121890445
:101510008843F3490860084640683F21090488432E
:10152000EF4948600846C06A00090001C8620846E1
:10153000006BEE490840EA4908630846406B4008E2
:10154000400048630020886070470021E44A9170A1
:1015500011468870704710B5024600210023002014
:101560005111002902D1DE4C23680BE0012902D180
:10157000DB4C236A06E0022902D1D94C636A01E000
:10158000D74C636BD106C90E01248C401C40002C43
:1015900001D0012000E0002010BD38B500200090EF
:1015A0000024002500BF1120FFF7D5FF0546009855
:1015B000401C0090052109030098884201D0002DAD
:1015C000F1D01120FFF7C7FF002801D0012400E06F
:1015D0000024204638BD01460020C14A1068F82387
:1015E00002469A431046CA001043BD4A1060704735
:1015F000002806D0BA49096801221143B84A11608F
:1016000005E0B749096849084900B54A11607047C3
:1016100001460020B24A506BF82302469A43104616
:10162000CA001043AE4A50637047002806D0AC4948
:10163000496B01221143AA4A516305E0A849496B4D
:1016400049084900A64A51637047002806D0A449BA
:10165000496B04229143A24A516305E0A049496BBA
:10166000042211439E4A516370479D49096A490803
:1016700049009B4A11621146096A04229143984A23
:1016800011621146096A0143116270479449096A5F
:1016900018229143924A11621146096A014311626C
:1016A0007047002806D08E49496A012211438C4AAE
:1016B000516205E08A49496A49084900884A5162ED
:1016C0007047874A52687B23DB039A43844B5A60F6
:1016D0001A46526803460B431A43814B5A607047BF
:1016E000002807D07E4909680122120611437C4A6E
:1016F000116006E07A490968012212069143784A8E
:1017000011607047002807D07549496B0122120407
:101710001143734A516306E07149496B0122120477
:1017200091436F4A51637047014600206C4AD06A6A
:101730000009000102460A431046694AD062704718
:10174000002807D0664909680122D2041143644A7F
:10175000116006E0624909680122D2049143604A9F
:10176000116070475E49C8717047014600205C4AAD
:1017700050688008800002460A431046584A50606C
:101780007047574840680C210840704701460020C8
:10179000534A5068F02302469A43104602460A43D1
:1017A00010464F4A50607047014600204C4A50682E
:1017B00007231B0202469A43104602460A4310467C
:1017C000474A506070474649496801229203914355
:1017D000434A51601146496882B21143404A516000
:1017E0001146096B921591433D4A11631146096BED
:1017F000020C11433A4A116370473949096B402280
:101800009143374A11631146096B014311637047D5
:101810003349096B10229143314A11631146096B18
:101820000143116370470021010F012906D12C4AA1
:10183000126B920892002A4B1A6310E0022907D11A
:10184000274A126B03231B049A43254B1A6306E0B5
:10185000234A126B03239B049A43214B1A63204AA9
:10186000126B02431E4B1A6370471D49096B80229D
:1018700091431B4A11631146096B01431163704781
:10188000FEB504460025002600200290019000903D
:101890000027134840680C2108400546002D06D05B
:1018A000042D07D0082D08D00C2D39D135E0104873
:1018B000206038E00E48206035E0094840680F217C
:1018C000890408400646064840680321C9030840C9
:1018D0000290B00C861C0298002810D105480BE03D
:1018E000001002400CB8FFF8FFFFF6FEACFEF0FF60
:1018F00000127A0000093D00374647430BE0C2481A
:10190000C06A0007000F401C0190C048019901F017
:10191000DFF870430746276005E0BD48206002E01D
:10192000BA48206000BF00BFB7484068F0210840B7
:1019300005462D09B748405D009020680099C840D1
:101940006060B148406807210902084005462D0A39
:10195000B048405D009061680098C140A160AA480D
:10196000006BFF2101310840884202D0AA48E060A4
:101970000DE0A5484068012189030840884203D052
:10198000A0684008E06002E0A0688008E0609E482F
:10199000006B40210840402802D0A048206102E0AE
:1019A0000120C00320619848006B102108401028D6
:1019B00002D09648606101E0206860619248006B47
:1019C0008007800F002802D1A068A06119E08E482E
:1019D000006B8007800F012802D12068A06110E011
:1019E0008948006B8007800F022802D18003A06124
:1019F00007E08548006B8007800F032801D18348EA
:101A0000A0618148006B032109040840002802D12D
:101A1000A068E06120E07C48006B032109040840D5
:101A200001210904884202D12068E06114E076486F
:101A3000006B03210904084001214904884202D1B6
:101A40008010E06108E07048006B03210904084041
:101A5000884201D16D48E0616B48006B0321890425
:101A60000840002802D1A068206220E06648006B90
:101A700003218904084001218904884202D1206899
:101A8000206214E06048006B0321890408400121B2
:101A9000C904884202D10011206208E05A48006B54
:101AA000032189040840884201D1584820625648E1
:101AB000006B80210840802802D05548606200E019
:101AC0006762FEBD5049096A01434F4A116270477F
:101AD000002807D04C49096A0122D20311434A4A1F
:101AE000116206E04849096A0122D2039143464A3D
:101AF00011627047002807D04349096A0122120485
:101B00001143414A116206E03F49096A0122120469
:101B100091433D4A11627047002905D03A4A526903
:101B20000243394B5A6104E0374A52698243364BCB
:101B30005A617047002905D0334A92690243324BFB
:101B40009A6104E0304A926982432F4B9A61704750
:101B5000002905D02C4AD26902432B4BDA6104E0FC
:101B6000294AD2698243284BDA617047002905D09F
:101B7000254A926A0243244B9A6204E0224A926AFE
:101B80008243214B9A627047002905D01E4AD268D1
:101B900002431D4BDA6004E01B4AD26882431A4BB1
:101BA000DA607047002905D0174A12690243164BC4
:101BB0001A6104E0144A12698243134B1A61704798
:101BC000002905D0104A527A02430F4B5A7204E0A2
:101BD0000D4A527A82430C4B5A7270470A48406A47
:101BE0000121090608430849486270470146002060
:101BF000054A92680A40002A01D0012000E0002036
:101C000070470149887270470010024000127A0044
:101C1000006CDC0230000020809FD50012800000A4
:101C200010B50446F748844208D10121C014FFF7DB
:101C3000ABFF0021E014FFF7A7FF62E0012080075F
:101C4000844208D101210846FFF7ACFF00210120A2
:101C5000FFF7A8FF55E0EC48844208D1012102209B
:101C6000FFF7A0FF00210220FFF79CFF49E0E748B3
:101C7000844208D101211020FFF794FF0021102099
:101C8000FFF790FF3DE0E248844208D10121202087
:101C9000FFF788FF00212020FFF784FF31E0DD48B7
:101CA000844208D101218015FFF77CFF0021A01597
:101CB000FFF778FF25E0D848844209D101210804C4
:101CC000FFF762FF002101200004FFF75DFF18E02D
:101CD000D248844209D101214804FFF755FF002171
:101CE00001204004FFF750FF0BE0CD48844208D1AB
:101CF00001218804FFF748FF002101208004FFF73D
:101D000043FF10BD00220288BE4B984206D001233B
:101D10009B07984202D0BC4B984203D1C14B1A405A
:101D20004B881A43B94B984203D0BF4B1A400B89DA
:101D30001A4302804B68C3620B880385B14B9842FB
:101D400008D0B54B984205D0B44B984202D0B44B62
:101D5000984201D18B7A0386012383827047002148
:101D6000C943416000210180018141808172704737
:101D70000185828270470A4600210188A94B1940DB
:101D80000B46134319460180704741627047C16298
:101D900070470146486A70470146088D7047002920
:101DA00004D0028802231A43028004E002889D4B7B
:101DB0006E331A4002807047002904D00288042341
:101DC0001A43028004E00288964B6C331A4002806A
:101DD0007047002904D0028880231A43028004E05F
:101DE0000288904B103B1A400280704702888D4B4E
:101DF00068331A40028002880A43028070470288D2
:101E0000894B1A40028002880A43028070470029E9
:101E100004D0028801231A43028004E00288814B27
:101E20006F331A40028070470A884B881A438B88A8
:101E30001A43CB881A430B891A434B891A438B895F
:101E40001A4344231A527047002101804180818047
:101E5000C1800181418181817047002907D04422DE
:101E6000125A0123DB031A4344231A5205E0442289
:101E7000125A53045B0C44221352704770B500246D
:101E800000220023058C674E6F3635400584028C96
:101E90008388048B634D2C40B51E2C400D882C4349
:101EA000751E2A408D892A434D882A43554DA842E4
:101EB00008D0594DA84205D0584DA84202D0584DDF
:101EC000A84212D1574D68352A40CD892A43554D35
:101ED0006C352A408D882A43524D903D2B40534DFE
:101EE0002B400D8A2B434D8A2B43838004838D68BE
:101EF0004563028470BD70B5002400220023058C68
:101F0000484E603635400584028C8388048B484DEA
:101F10002C40454D2C400D782D062D0C2C43414D69
:101F200050352A408D892D052D0C2A434D882D05CD
:101F30002D0C2A43334DA84202D0374DA8421CD164
:101F40003C4D2B400D8AAD042D0C2B432D4DA8424A
:101F500013D1344D103D2A40CD892D052D0C2A4337
:101F6000304D30352A408D882D052D0C2A43324DB9
:101F70002B404D8AAD042D0C2B43838004838D6848
:101F80008563028470BD70B5002400220023058C97
:101F9000244E903E35400584028C8388848B214DED
:101FA0002C40204D6D352C400D882C431F4D2A4070
:101FB0000D7B2D062D0C2A438D782D062D0C2A43E2
:101FC000104DA84217D11C4D2A408D7B2D062D0C9B
:101FD0002A43184D2A400D792D062D0C2A43174D02
:101FE0002B40174D2B400D8A2D052D0C2B434D8A70
:101FF0002D052D0C2B43838084838D68C56302845B
:1020000070BD0000002C01400004004000100040A2
:102010000014004000200040004001400044014006
:10202000004801408FFF0000FFFC0000FFFD0000A2
:10203000FF8F0000FFFB0000FFF70000FFEF000034
:10204000FFDF000070B5002200230024058CF94E4C
:1020500035400584038C8488828BF74D2A40F74DE8
:102060002A400D782D062D0C2A43F54D2B400D7B73
:102070002D072D0C2B438D782D072D0C2B43F14D67
:10208000A84205D1F04D2C400D8AAD052D0C2C43F6
:10209000848082838D680564038470BD0021018083
:1020A0004180818081608181C1810182418270474C
:1020B00070B50346002000241846183001258D40D5
:1020C000ACB21D8CA5431D84002901D0082909D17B
:1020D0004D10281805687026B5430560056815433E
:1020E00005600DE00D1F2D046D0C281805680726EE
:1020F0003603B543056005681606360C35430560A2
:1021000070BD4163704781637047C163704701646C
:1021100070470A460021018BCC4B19400B461343F4
:102120001946018370470A460021018BC24B1940B2
:1021300013061B0C1943018370470A460021818B4B
:10214000C24B19400B4613431946818370470A4618
:102150000021818BB84B194013061B0C1943818356
:102160007047002904D0828801231A43828004E04A
:102170008288B64B6F331A40828070470A4600212E
:10218000018BB24B683319400B4613431946018348
:1021900070470A460021018BAD4B194013061B0CFA
:1021A0001943018370470A460021818BA74B68338E
:1021B00019400B4613431946818370470A46002194
:1021C000818BA34B194013061B0C19438183704765
:1021D0000A460021018B9D4B6C3319400B4613437B
:1021E0001946018370470A460021018B994B19401B
:1021F00013061B0C1943018370470A460021818B8B
:10220000924B6C3319400B46134319468183704738
:102210000A460021818B8F4B194013061B0C194372
:10222000818370470A460021018B884B103B19407F
:102230000B4613431946018370470A460021018B60
:102240004904490C13061B0C1943018370470A46C5
:102250000021818B7D4B103B19400B4613431946DF
:10226000818370470A460021818B4904490C13067B
:102270001B0C1943818370470A460021018C734B64
:102280006E3319400B4613431946018470470A46C2
:102290000021018C6D4B683319400B4613431946DE
:1022A000018470470A460021018C684B5033194065
:1022B00013051B0C1943018470470A460021018C49
:1022C000624B103B194013051B0C194301847047E6
:1022D0000A460021018C604B194013061B0C194360
:1022E000018470470A460021018C594B194013069E
:1022F0001B0C1943018470470A460021018C504B86
:10230000194013071B0C19430184704702894F4B76
:1023100068331A40028102890A430281704730B54E
:10232000002301248C40A3B2048C9C430484048CBD
:1023300015468D40ADB22C43048430BD30B500232A
:1023400004248C40A3B2048C9C430484048C154662
:102350008D40ADB22C43048430BD002904D0828866
:1023600004231A43828004E08288384B6C331A407D
:1023700082807047828B394B1A408283828B0B0696
:102380001B0C1A4382837047F8B50C4600210025C8
:1023900000260096068C274F3E400684818B058CD4
:1023A0002607360C00962E4E31401606360C314369
:1023B0001E07360C31432B4E354001273F03009E4C
:1023C0003E43354381830584F8BD828B1F4B6433C4
:1023D0001A408283828B0A4382837047F8B50C4689
:1023E0000021002500260096068C184F903F3E40A5
:1023F0000684818B058C2606360C0096134E833E90
:1024000031401E05360C16433143174E3540FF2729
:102410000137009E3E43354381830584F8BD028B1E
:102420000E4B1A400283028B0B061B0C1A430283CD
:1024300070470000FFEF0000FF8F0000FFFC00006E
:10244000FFDF0000002C0140FFBF00008FFF0000F5
:10245000FFF70000FFFB0000FFFD0000FFF300009E
:10246000FF0C0000FF5F0000FFF50000F8B50C4610
:102470000021002500260096068CE64F3E4006848B
:10248000018B058C2605360C0096E34E31401E0765
:10249000360C31431606360C3143DE4E903E354045
:1024A0001027009E3E43354301830584F8BD028B0F
:1024B000D84B1B1D1A400283028B0A4302837047CC
:1024C000F0B50C4600210025068CD24F0F373E4058
:1024D0000684018B058CCF4EE33E31401E05360C41
:1024E00016433143CB4EB61D3540012626433543B6
:1024F00001830584F0BD70B505460C462088002890
:102500000AD12389A28861882846FFF7D9FFE1888C
:102510002846FFF7CCFF25E0208804280AD123892C
:10252000A28861882846FFF7A1FFE1882846FFF7C7
:1025300076FF17E0208808280AD12389A2886188BD
:102540002846FFF74BFFE1882846FFF73EFF09E0EA
:102550002389A28861882846FFF716FFE18828466C
:10256000FFF708FF70BD00210180418001218180BB
:102570000021C18001817047F8B505460C46002650
:1025800001276088002801D1022600E00026A088EB
:10259000012801D1022700E001272088002814D15A
:1025A0002389A28861882846FFF78AFFE1882846A8
:1025B000FFF77DFF23893A4631462846FFF756FF4D
:1025C000E1882846FFF72BFF13E02389A288618862
:1025D0002846FFF74BFFE1882846FFF720FF2389B5
:1025E0003A4631462846FFF76BFFE1882846FFF759
:1025F0005EFFF8BD0146486B70470146886B704727
:102600000146C86B70470146086C7047002A03D02A
:1026100083890B43838102E083898B4383817047E5
:102620008182704702460020138A0B40002B01D0A4
:10263000012000E000207047CA430282704730B595
:102640000246002000230024158A0D402B46958960
:102650000D402C46002B03D0002C01D0012000E0BF
:10266000002030BDCA430282704710B50B461343A9
:102670004824235210BD002A03D083890B43838151
:1026800002E083898B4383817047002904D08288CC
:1026900008231A43828004E082885E4B08331A4084
:1026A0008280704701895B4A09321140018170477D
:1026B0000A4600210189574B603B19400B461343E2
:1026C00019460181704730B504460D46294620461B
:1026D000FFF7EEFF208907210843208130BDF8B5C0
:1026E00004460D4616461F46602D06D13B46012284
:1026F00031462046FFF7BAFE05E03B46012231464F
:102700002046FFF7DDFE29462046FFF7D1FF20894E
:10271000072108432081F8BD30B50C46002101890E
:10272000C9B21D062D0C154325432943018130BD37
:10273000FFB505460E46174600243A463146284660
:10274000039BFFF7E9FF2C8932480930044007203A
:102750000443304860380440702004432C81FFBD9E
:10276000F0B504460D4616461F463B4632462946FE
:102770002046FFF7D1FF20890121890308432081EA
:10278000F0BD8288234B603B1A40828082880A43D6
:102790008280704702891F4B09331A4002810289E7
:1027A0000A430281704702891A4B703B1A4002812A
:1027B00002890A4302817047F0B50C4600210025CA
:1027C00000260189058B068C124F093739400F46C8
:1027D00027433946114F3D40FF2702373D430D4FF8
:1027E0009A3F3E401F053F0C17433E43018105833E
:1027F0000684F0BD002904D0828880231A43828099
:1028000004E08288034B703B1A408280704750225C
:1028100011527047EFFF0000FF0C0000FCFC0000AD
:102820000F4880F308880F480168090E0E4A91424C
:1028300005D10E480E4901600E480F4901600F484E
:1028400080470F480047FEE7FEE7FEE7FEE7FEE7AA
:10285000FEE700000B480C490C4A0D4B7047000086
:10286000E8060020040000001F00000018100240CD
:102870000100000000000140000000006329000882
:10288000B5000008E8000020E8060020E80200206B
:10289000E80200200CB50020019000907348006809
:1028A0000121090408437149086000BF6F480068AE
:1028B00001214904084000900198401C01900098B3
:1028C000002804D10521090301988842EED1674808
:1028D0000068012149040840002802D0012000902E
:1028E00001E0002000900098012839D111206049B2
:1028F00008605E4840685D49486008464068486036
:10290000084640687F21C903884358494860084603
:10291000406811210904084354494860084600688A
:102920000121090608435149086000BF4F4800686B
:102930000121490608400028F8D04C48406880082A
:1029400080004A49486008464068022108434749D8
:10295000486000BF454840680C2108400828F9D16C
:102960000CBD10B541480068012108433F4908608B
:10297000084640683F4908403C49486008460068AE
:102980003D4908403949086008460068012189042A
:10299000884336490860084640683F210904884357
:1029A000324948600846C06A00090001C86208460A
:1029B000006BFF21543188432C4908630846406B63
:1029C00040084000486300208860FFF763FF10BDA7
:1029D000F8B50025002400260027244840680C2173
:1029E00008400546002D04D0042D06D0082D2AD11C
:1029F00007E022482249086029E020482049086071
:102A000025E01A4840680F21890408400446174809
:102A100040680321C90308400646A00C841C002E10
:102A200004D118486043164908600BE00F48C06A9B
:102A30000007000F471C3946104800F049F8604372
:102A40000F49086003E00D480D49086000BF00BF52
:102A500006484068F021084000090B490D5C084811
:102A60000068E84006490860F8BD00000010024018
:102A7000002002400CB8FFF8FFFFF6FE00127A00BB
:102A80004000002000093D004400002030B5441CF7
:102A900003E00178401C00290DD08107F9D10B4BD0
:102AA000DD0104C8D11A91432940FAD0001B0A065F
:102AB00003D0C01E30BD001B30BD0A0401D0801EF3
:102AC00030BD0902FCD0401E30BD000001010101F3
:102AD000002203098B422CD3030A8B4211D300231B
:102AE0009C464EE003460B433CD4002243088B42F5
:102AF00031D303098B421CD3030A8B4201D3944682
:102B00003FE0C3098B4201D3CB01C01A5241830974
:102B10008B4201D38B01C01A524143098B4201D32E
:102B20004B01C01A524103098B4201D30B01C01A59
:102B30005241C3088B4201D3CB00C01A52418308D3
:102B40008B4201D38B00C01A524143088B4201D300
:102B50004B00C01A5241411A00D201465241104660
:102B600070475DE0CA0F00D04942031000D34042D5
:102B7000534000229C4603098B422DD3030A8B420B
:102B800012D3FC22890112BA030A8B420CD38901A9
:102B900092118B4208D3890192118B4204D389018F
:102BA0003AD0921100E08909C3098B4201D3CB01CD
:102BB000C01A524183098B4201D38B01C01A524182
:102BC00043098B4201D34B01C01A524103098B4286
:102BD00001D30B01C01A5241C3088B4201D3CB0071
:102BE000C01A524183088B4201D38B00C01A524154
:102BF000D9D243088B4201D34B00C01A5241411A2B
:102C000000D20146634652415B10104601D3404258
:102C1000002B00D54942704763465B1000D3404209
:102C200001B50020C046C04602BD704770477047DE
:102C3000754600F023F8AE46050069465346C008C5
:102C4000C000854618B020B5FFF704FE60BC002721
:102C50004908B6460026C0C5C0C5C0C5C0C5C0C568
:102C6000C0C5C0C5C0C5403D49008D46704704463B
:102C7000C046C0462046FDF76AFA0000004870478B
:102C80008800002001491820ABBEFEE726000200A4
:102C9000704730B47446641E2578641CAB4204D37C
:102CA000635D5B00E31830BC18471D46F8E7000081
:102CB00000000000005F00000007000700147F1400
:102CC0007F14242A7F2A122313086462364955226E
:102CD000500005030000001C2241000041221C009E
:102CE000082A1C2A0808083E08080050300000087E
:102CF00008080808006060000020100804023E5127
:102D000049453E00427F40004261514946214145CC
:102D10004B311814127F1027454545393C4A494923
:102D20003001710905033649494936064949291ECA
:102D30000036360000005636000000081422411408
:102D400014141414412214080002015109063249D6
:102D500079413E7E1111117E7F494949363E4141FC
:102D600041227F4141221C7F494949417F09090194
:102D7000013E414151327F0808087F00417F4100F8
:102D80002040413F017F081422417F404040407F66
:102D90000204027F7F0408107F3E4141413E7F09CB
:102DA0000909063E4151215E7F09192946464949D4
:102DB000493101017F01013F4040403F1F20402039
:102DC0001F7F2018207F6314081463030478040312
:102DD000615149454300007F4141020408102041F0
:102DE000417F0000040201020440404040400001D5
:102DF00002040020545454787F48444438384444F2
:102E00004420384444487F3854545418087E0901FB
:102E100002081454543C7F0804047800447D4000A8
:102E20002040443D00007F10284400417F40007C4A
:102E3000041804787C0804047838444444387C142A
:102E4000141408081414187C7C080404084854540A
:102E50005420043F4440203C4040207C1C20402023
:102E60001C3C4030403C44281028440C5050503CFE
:102E70004464544C44000836410000007F000000C8
:102E80004136080008082A1C08081C2A08080705FB
:102E900005050702060202070701070407070107E5
:102EA00001070505070101070407010707040705D6
:102EB00007070102020207050705070705070107C3
:102EC00010222022100C1E3C1E0C00324832000042
:102ED00022202200002210220020121012207F7FC8
:102EE0007F7F7F0000000000110D0E505107060586
:102EF00004030200142F000800000020540000000A
:102F0000F8000008682F0008540000209406000014
:102F10001401000800000000000000000000000094
:102F200050C300000000000000000000000000008E
:102F30000000000000000000000000000000000091
:102F4000000021000000000001020304010203044C
:102F500006070809006CDC02000000000000000009
:082F6000010203040607080941
:04000005080000B53A
:00000001FF
